{
  "address": "0x398E4948e373Db819606A459456176D31C3B1F91",
  "abi": [
    {
      "anonymous": false,
      "inputs": [
        {
          "indexed": false,
          "internalType": "uint256",
          "name": "newValue",
          "type": "uint256"
        }
      ],
      "name": "ValueChanged",
      "type": "event"
    },
    {
      "inputs": [],
      "name": "retreive",
      "outputs": [
        {
          "internalType": "uint256",
          "name": "",
          "type": "uint256"
        }
      ],
      "stateMutability": "view",
      "type": "function"
    },
    {
      "inputs": [
        {
          "internalType": "uint256",
          "name": "newValue",
          "type": "uint256"
        }
      ],
      "name": "store",
      "outputs": [],
      "stateMutability": "nonpayable",
      "type": "function"
    },
    {
      "inputs": [],
      "name": "version",
      "outputs": [
        {
          "internalType": "uint256",
          "name": "",
          "type": "uint256"
        }
      ],
      "stateMutability": "pure",
      "type": "function"
    }
  ],
  "transactionHash": "0xca1035e5545a66e02a0c43c69a7dfb9c27016ec94f40ccec56df049489db7356",
  "args": [],
  "numDeployments": 1,
  "solcInputHash": "7166150fe03f3b47003e40b93d731db6",
  "bytecode": "0x608060405234801561001057600080fd5b506101b9806100206000396000f3fe608060405234801561001057600080fd5b50600436106100415760003560e01c806354fd4d50146100465780636057361d14610064578063b05784b814610080575b600080fd5b61004e61009e565b60405161005b919061010a565b60405180910390f35b61007e60048036038101906100799190610156565b6100a7565b005b6100886100e8565b604051610095919061010a565b60405180910390f35b60006001905090565b806000819055507f93fe6d397c74fdf1402a8b72e47b68512f0510d7b98a4bc4cbdf6ac7108b3c59816040516100dd919061010a565b60405180910390a150565b60008054905090565b6000819050919050565b610104816100f1565b82525050565b600060208201905061011f60008301846100fb565b92915050565b600080fd5b610133816100f1565b811461013e57600080fd5b50565b6000813590506101508161012a565b92915050565b60006020828403121561016c5761016b610125565b5b600061017a84828501610141565b9150509291505056fea2646970667358221220f6627f3e3dccd6eb769c09d8d3da0a8f9e76411a2b84f1b9c566bbe9e48a3f2b64736f6c63430008090033",
  "devdoc": {
    "kind": "dev",
    "methods": {},
    "version": 1
  },
  "userdoc": {
    "kind": "user",
    "methods": {},
    "version": 1
  },
  "storageLayout": {
    "storage": [
      {
        "astId": 3,
        "contract": "contracts/Box.sol:Box",
        "label": "value",
        "offset": 0,
        "slot": "0",
        "type": "t_uint256"
      }
    ],
    "types": {
      "t_uint256": {
        "encoding": "inplace",
        "label": "uint256",
        "numberOfBytes": "32"
      }
    }
  }
}